:020000040800F2
:10000000F00500209D010008B7260008E721000840
:10001000B5260008510900082F2D00080000000037
:10002000000000000000000000000000BB260008E7
:100030007909000800000000B9260008F926000828
:10004000B7010008B7010008B7010008B7010008B0
:10005000B7010008B70100087B090008B7010008D4
:1000600081090008B7010008B7010008B7010008BE
:10007000B7010008B7010008B7010008B701000880
:10008000B7010008B70100081D080008B701000803
:10009000B7010008B7010008B7010008B701000860
:1000A000B7010008B7010008B7010008B701000850
:1000B000B7010008B7010008B7010008B701000840
:1000C000B7010008B7010008B7010008B701000830
:1000D000B7010008B7010008B7010008B701000820
:1000E000B7010008B7010008B7010008B701000810
:1000F000B7010008B7010008B7010008B701000800
:10010000B7010008B7010008B7010008B7010008EF
:10011000712A0008B7010008B7010008B7010008FC
:10012000B7010008B7010008B7010008B7010008CF
:10013000B7010008B7010008B7010008B7010008BF
:10014000B7010008B7010008B7010008B7010008AF
:10015000B7010008B7010008B7010008B70100089F
:10016000B7010008B7010008B7010008B70100088F
:10017000B7010008B7010008B7010008000000003F
:10018000B7010008B7010008DFF80CD000F034FB1D
:100190000048004775340008F005002006488047F5
:1001A00006480047FEE7FEE7FEE7FEE7FEE7FEE75C
:1001B000FEE7FEE7FEE7FEE7812700088901000869
:1001C0002DE9F05F0546002092469B46884606468C
:1001D000814640241BE0284641464746224600F01F
:1001E00055FA53465A46C01A914110D31146184643
:1001F000224600F03CFA2D1A67EB01084F462246D2
:100200000120002100F033FA17EB00094E41201EB7
:10021000A4F10104DFDC484631462A464346BDE8E6
:10022000F09FD2B201E000F8012B491EFBD27047CB
:100230000022F6E710B513460A4604461946FFF7B2
:10024000F0FF204610BD10B5044604E00B7800F81E
:10025000013B03B1491C521EF8D2204610BD421C7E
:1002600010F8011B0029FBD1801A704710B500223D
:1002700000E0521C835C8C5CA34201D1002BF8D1BE
:10028000D8B2E1B2401A10BD2DE9FE4F804681EA96
:100290000300C00F0C46009021F0004123F0004500
:1002A000B8EB0200A94105D24046214690461C46C3
:1002B0000B46024623F00040104347D0270DC7F3FA
:1002C0000A00C3F30A510290401A019040286BDAE9
:1002D000C3F3130040F4801B0098924620B1002322
:1002E000D2EB030A63EB0B0B01985946C0F14002B5
:1002F000504600F0BCF906460D4650465946019A54
:1003000000F0D4F910EB08006141002487EA115293
:1003100084EAE7731A4340D0009A62B3019A012A33
:100320004FEA075215DC001B61EB02014FF000425F
:1003300002EA0752CDE90042001C41F58011324625
:100340002B4600F00BFA03B0BDE8F08F4046214683
:10035000F9E7001B61EB0201001C41F58013001856
:100360005B412018A2F5001747EB030140EAD57066
:10037000B6196D4111E06D084FEA360645EAC075C1
:100380004FEA0752001B61EB0201001C41F580118E
:1003900049084FEA30000019514132462B4603B05C
:1003A000BDE8F04F00F0CBB90098012240000023D7
:1003B000D0EB020263EBE073009821464FEAE07451
:1003C000B8EB000061EB0401E9E783F000435BE771
:1003D00081F0004158E72DE9FE4F81EA030404F063
:1003E000004421F0004100944FF0000B23F0004343
:1003F00050EA01045ED052EA03045BD0C3F30A540E
:10040000C1F30A552C44A4F2F3340194A0FB025426
:10041000C1F3130141F48011C3F3130343F48013B8
:1004200001FB024400FB034E840A970A44EA81540C
:1004300047EA8357A4FB076802958D0A05FB0785E9
:100440004FEA932C04FB0C542705029D4FEA0658F3
:1004500047EA1637B5EB08056EEB070C870E920ED0
:1004600047EA811742EA8312A7FB0201B6EB0B01B0
:1004700064EB00042B0D43EA0C335E1844EB1C5074
:10048000DA465146E7FB0201C5F313044FEA0B338A
:1004900043EA14534FEA0432019C43EA0603A4F1F1
:1004A0000C040294009CCDE900B400F057F903B0AD
:1004B000BDE8F08F00200146F9E72DE9F04D81EA13
:1004C000030404F0004B21F0004514464FF0000AED
:1004D00023F0004150EA050220D054EA01021DD069
:1004E000C5F30A570246C5F31303C1F31300C1F362
:1004F0000A5640F4801543F48013A7EB0608101B3E
:10050000D64608F2FD3873EB050002D308F1010866
:1005100001E092185B41B8F1000F03DA00200146B8
:10052000BDE8F08D00204FF48011064684460EE0B1
:10053000171B73EB050705D3121B63EB050306437B
:100540004CEA010C49084FEA300092185B4150EA2E
:100550000107EDD152EA030012D082EA040083EAD7
:100560000501084305D0101BAB4106D20122002330
:1005700006E000224FF0004302E06FF0010253104A
:100580001AEB06004CEB085110EB0A0041EB0B0193
:10059000BDE8F04D00F0D3B80EB540F23341029102
:1005A0000021CDE900110A460B4600F0D7F803B050
:1005B00000BDC1F30A5210B5C1F3130140F2FF337D
:1005C00041F480119A4201DA002010BD40F2334319
:1005D0009A42A2F2334203DC524200F057F810BDB7
:1005E000904010BD00F0004230F000400AD0C10D34
:1005F00001F56071C0F3160042EA0151C2084007DC
:100600001143704700200146704701F0004330B4A9
:1006100021F0004150EA010206D00A0DA2F56072F5
:10062000C1F31301002A02DC30BC00207047440FE4
:1006300044EAC104C100E01830BC00EBC25000F035
:1006400047B830B50B46014600202022012409E0BE
:1006500021FA02F59D4205D303FA02F5491B04FA7B
:1006600002F52844151EA2F10102F1DC30BD202A5A
:1006700004DB203A00FA02F1002070479140C2F1F9
:10068000200320FA03F3194390407047202A04DB2B
:10069000203A21FA02F00021704721FA02F3D040FB
:1006A000C2F120029140084319467047202A06DB18
:1006B000CB17203A41FA02F043EAE07306E041FA30
:1006C00002F3D040C2F1200291400843194670471E
:1006D0000029A8BF7047401C490008BF20F0010056
:1006E000704710B4B0FA80FC00FA0CF050EA010434
:1006F00004BF10BC704749B1CCF1200421FA04F4C6
:1007000011FA0CF118BF012121430843A3EB0C019E
:10071000CB1D4FEA00614FEA102042BF002010BC01
:10072000704700EBC35010440029A4BF10BC7047B1
:10073000401C490008BF20F0010010BC704710B5F4
:10074000141E73F1000408DA401C41F100019218F4
:100750005B411A4301D120F0010010BD2DE9F04D9D
:1007600092469B4611B1B1FA81F202E0B0FA80F2F2
:1007700020329046FFF77BFF04460F4640EA0A000E
:1007800041EA0B0153465A46084313D0114653EA37
:10079000010019D0C8F140025046FFF777FF054627
:1007A0000E46504659464246FFF761FF084305D0C2
:1007B000012004E020463946BDE8F08D00200543C5
:1007C00046EAE0762C4337430A986305E40AA0EB37
:1007D00008000022FD0A44EA47540A3002D50020EE
:1007E0000146E9E7010510196941DDE908450019ED
:1007F0006941BDE8F04DA2E7064C074D06E0E06810
:1008000040F0010394E8070098471034AC42F6D357
:10081000FFF7BEFC543C0008743C0008014800F09F
:100820005EB9000068000020464910B54A6822F40D
:1008300040324A604A6843681A434A6001684A681D
:1008400022F480724A6001684A68036942EA03221E
:100850004A6001684A6822F040724A6001684A684A
:1008600083681A434A6001688A6822F400628A60D9
:1008700001688A68C3681A438A60816A6FF070628F
:10088000D14201688A6822F070628A6001688A68D1
:100890000CD0836A1A438A6001688A6822F0405249
:1008A0008A6001688A68C36A1A4301E022F04052F4
:1008B0008A6001688A6822F002028A6001688A6898
:1008C000037E42EA43028A6090F820100029016802
:1008D0004A680FD042F400624A6001684A6822F414
:1008E00060424A6001684A68174C436A04EB43332C
:1008F0001A4301E022F400624A600168CA6A22F4E5
:100900007002CA620168CA6A838B104C04EB0353FD
:100910001A43CA6201688A6822F400728A60016818
:100920008A6890F8303042EA43228A6001688A6817
:1009300022F480628A6001688A68406942EA802005
:10094000886010BD0023014000E0FFFF0000F0FFC1
:10095000FEE7000010B501F0BFFE002202210548AD
:1009600000F0F0FB122002F0E9FABDE8104001F0BF
:10097000A5BE0000000002407047012000F0EEBA62
:10098000042000F0EBBA704778B50024009490F88A
:100990003C20012A19D0012280F83C200A68072354
:1009A0000568092A13D9EE680A3A02EB420293401D
:1009B0009E43EE600B788A680A3B03EB43039A4040
:1009C0000368DD682A43DA6010E0022078BD2E69F2
:1009D00002EB420293409E432E610B788A6803EB40
:1009E00043039A4003681D692A431A614A681F231A
:1009F000072A13D205686E6B521E02EB82029340E7
:100A00009E436E630B790A885B1E92B203EB8303ED
:100A10009A4003685D6B2A435A6327E005680D2AF4
:100A200012D22E6BD21F02EB820293409E432E63A2
:100A30000B790A88DB1F92B203EB83039A400368A9
:100A40001D6B2A431A6311E0EE6A0D3A02EB820233
:100A500093409E43EE620B790A880D3B92B203EB02
:100A600083039A400368DD6A2A43DA62164B0568FD
:100A7000144A9D4206D10D68122D03D1556845F4E4
:100A80008005556005689D4218D10B68102B01D078
:100A9000112B13D1536843F40003536009681029E4
:100AA0000CD10A490A4A0968B1FBF2F101EB810154
:100AB000490000E0491E00910029FBD180F83C402C
:100AC000002078BD00230140002001403C000020B0
:100AD00040420F00704770470068C06C704770B5A7
:100AE0000446006801684268C1F34001C2F3401245
:100AF00051B34AB3216CC90603D4216C41F400718F
:100B00002164816811F0405F17D1217EA9B9C16AC3
:100B100011F4700F02D0816849050ED4416821F0AC
:100B200020014160206C20F480702064206CC0049F
:100B300003D4206C40F0010020642046FFF7CAFF78
:100B400021686FF012000860206801684268C1F3F4
:100B50008001C2F3C01289B382B3216CC90603D4E9
:100B6000216C41F400512164816811F4401F1ED1B1
:100B7000816B11F4401F02D08168490517D4416888
:100B8000490514D4816811F0405F10D1217E71B9FC
:100B9000416821F080014160206C20F48050206485
:100BA000206CC00503D4206C40F001002064204676
:100BB000FFF7E9FE21686FF00C000860206801680B
:100BC000426811F0010FC2F380120ED06AB10068C2
:100BD000C0070AD0206C40F480302064204600F02A
:100BE00046F821686FF001000860206801684268DB
:100BF000C1F34011C2F3806200290DD0002A0BD04E
:100C0000616C41F0020161646FF0200505602046CF
:100C1000FFF761FF2068056070BD70B504004FF0FC
:100C2000000503D0206C002610B107E0012070BD44
:100C3000204600F01DF8666484F83C60206CC00615
:100C400010D4206C20F4885040F00200206420462C
:100C5000FFF7EAFD6664206C20F0020040F001001E
:100C6000206400E0012584F83C60284670BD704790
:100C700010B586B0044614216846FFF7D9FA154925
:100C80002068884224D114480021026842F480720E
:100C90000260006800F4807005900F481438026804
:100CA00042F001020260006800F00100059001209E
:100CB00000900320CDE901016946084800F05AF987
:100CC00000221146122000F077FC122000F066FC92
:100CD00006B010BD00200140443802400000024030
:100CE0002DE9F041044600680D4681684FF0000789
:100CF00049050BD58068C00508D5206C40F0200060
:100D0000206484F83C700120BDE8F08100F020FAF6
:100D100006460FE0681C0DD025B100F019FA801BC3
:100D2000A84207D9206C40F00400206484F83C708D
:100D30000320E9E7206800688007EBD521686FF0A1
:100D400012000860206C40F4007020642068816804
:100D500011F0405F13D1217E89B9C16A11F4700F7F
:100D600002D0806840050AD4206C20F48070206492
:100D7000206CC00403D4206C40F0010020640020EB
:100D8000C2E7000018B50021009190F83C20012A2C
:100D900007D0012280F83C2002689368DB0702D06C
:100DA00011E0022018BD936843F0010393602A4AC2
:100DB0002A4B1268B2FBF3F202EB420200E0521E31
:100DC0000092002AFBD102689368DB0741D0036CD4
:100DD00040F20164A34343F48073036453685B05EA
:100DE00005D5036C23F4005343F480530364036C70
:100DF000DB0404D5436C23F00603436400E0416444
:100E000080F83C1016496FF02203136049680068AF
:100E1000CA06144906D088421BD1816811F0405F90
:100E200013D016E08842F8D00F4A904203D1D1F88F
:100E30000423D206F1D00D4A90420AD1D1F804130E
:100E400001F01F011029E8D303E0816841F08041DF
:100E50008160002018BD00003C00002040420F00CF
:100E600000230140002001400021014000220140F8
:100E700090F83C1001290CD0012180F83C10016849
:100E80008A6822F001028A6001688968C90702D075
:100E900007E002207047016C21F4885141F0010104
:100EA0000164002180F83C100846704790F8351026
:100EB000022903D08021416501207047052180F877
:100EC00035100068016821F00101016000207047C1
:100ED00070B5044600F03CF90546601C02D0044899
:100EE0000078044400F034F9401BA042FAD370BDEE
:100EF0003000002070B5164C01280ED0042825D1F2
:100F0000C82002F01BF8E0784FF41675401CE07022
:100F1000104CC00710D000200FE0C82002F00EF8DF
:100F20006078401C6070C00710D1BDE870404FF47D
:100F30000051094800F0FFB8B42002F0D7FB216847
:100F400048632846BDE8704001F0F8BF70BD00005E
:100F50000000002058010020000C0240044910B598
:100F60000A68024202D00860FFF7C4FF10BD00000B
:100F7000143C01402DE9F84F00224FF001080325F1
:100F80004FF00F0E0B6808FA02F42340A3426ED113
:100F90004E68012E05D0022E03D0112E01D0122E44
:100FA00012D186684FEA420C05FA0CF7BE43CF68AF
:100FB00007FA0CF7374387604668A6430C79C4F3F9
:100FC0000014944034434460C668570005FA07FC97
:100FD0008C6826EA0C06BC403443C4604C68022C82
:100FE00001D0122C13D1D40800EB8404A346D4F80A
:100FF000209054074FEAD46A0EFA0AF629EA060945
:101000000E6906FA0AF646EA0906CBF82060066879
:101010000C7926EA0C0604F00304BC403443046057
:101020004C68E40065D5364C266846F48046266058
:10103000246822F0030604F480440094314C3444C4
:10104000A446D4F808489607370F0EFA07F6B443BB
:101050002D4EB04201D1002624E02C4EB04201D1E9
:1010600001261FE02A4EB04202D102261AE040E0DB
:10107000284EB04201D1032614E0274EB04201D1E0
:1010800004260FE0254EB04201D105260AE0244E89
:10109000B04201D1062605E0224EB04201D107261A
:1010A00000E00826BE402643CCF808681E4E34688F
:1010B0004F689C43FF0300D51C4334601A4C241D29
:1010C00026684F689E43BF0300D51E432660164E18
:1010D000083634684F689C43FF0200D51C433460D7
:1010E000114E0C3634684F689C43BF0200D51C4338
:1010F0003460521C102AFFF445AFBDE8F88F0000A1
:101100004438024000300140000002400004024028
:1011100000080240000C024000100240001402408F
:1011200000180240001C0240003C014000690840D9
:1011300000D001207047426931EA020200D109045F
:10114000816170470AB1816170470904FBE70000C3
:1011500001488068704700003000002070B504002E
:1011600025D094F83D00002520B984F83C50204655
:1011700000F04EF9242084F83D002068016821F039
:10118000010101602068016841F4004101602068AC
:10119000016821F40041016000F0DAFA4D4A61680B
:1011A000914201D84C4900E04C49884201D20120CB
:1011B00070BD4B492368B0FBF1F15E6826F03F0635
:1011C0000E435E606368934206D94FF496735943A9
:1011D0004FF47A73B1FBF3F12368491C1E6A26F0C1
:1011E0003F06314319626168914210D84900401EA0
:1011F000B0FBF1F2521CC2F30B02042A01D204200C
:1012000022E0B0FBF1F0401CC0F30B001CE0A26830
:10121000F2B301EBC10303EB0116431EB3FBF6F37C
:101220005B1C43F480431B0549D092B301EBC10220
:1012300002EB0111401EB0FBF1F0401CC0F30B00AB
:1012400040F4804040F400402168CA694CF6FF73C6
:101250009A431043C861D4E907100143206802682B
:1012600022F0C00211430160D4E903010143206868
:10127000826848F2FF339A4311438160D4E9050143
:1012800008432168CA6822F0FF021043C86001E0E9
:101290000EE016E02068016841F00101016025645C
:1012A000202084F83D00256384F83E50002070BD66
:1012B00001EB4106431EB3FBF6F35B1CB3E70120D1
:1012C000C2E701EB4101401EB0FBF1F0401CC0F34E
:1012D0000B00B7E7A086010080841E0000093D00D6
:1012E00040420F002DE9F84F1F4690468A460446BB
:1012F000DDF82890FFF72CFF054694F83D002028E4
:101300007FD11923012240492046009500F0F8FFC3
:10131000002876D194F83C00012872D0012084F88E
:101320003C0020680168C90703D1016841F0010150
:1013300001602068016821F400610160212084F8C7
:101340003D00102084F83E0000262664C4F8248066
:101350006785608D20852D48E0622B464A465146C0
:10136000204600F059FF90B92068416980690090DB
:1013700036E02A464946204601F041F850B1206C3B
:10138000042804D12068016841F400710160012043
:10139000BDE8F88F606A216800780861606A401CC7
:1013A0006062618D491E6185218D491E89B221854A
:1013B00022685369DB435B070BD451B1007810619D
:1013C000606A401C6062608D401E6085208D401EFA
:1013D00020852A464946204600F06CFF0028CED1E1
:1013E000208D0028C5D154F83D0B016841F40071EF
:1013F0000160202004F81E09E67766770020C7E721
:10140000FFE70220C4E70000020010000000FFFF19
:101410002DE9F04186B0044614216846FEF708FF26
:101420002B4A2168DFF8AC802A48122401250326C4
:10143000042708F11008914219D1016841F0020116
:1014400001600068694600F002000590C0208DE848
:10145000F1002148FFF78EFDD8F8001041F400118B
:10146000C8F80010D8F8000000F400102BE01B4A68
:10147000914229D1016841F004010160016801F045
:1014800004010591016841F00101016000686946AD
:1014900000F00100059050158DE8F1001048FFF7AD
:1014A00069FD4FF480708DE8F10069460D48FFF743
:1014B00061FDD8F8001041F40001C8F80010D8F818
:1014C000000000F40000059006B0BDE8F0810000C7
:1014D000005400403038024000040240005C0040EC
:1014E000000802400000024002488168027811446E
:1014F00081607047300000200B4810B5016841F44E
:1015000000710160016841F480610160016841F48B
:1015100080710160032000F06FF8002000F006F8F1
:1015200000F024F8002010BD003C024070B50D4DC5
:1015300004464FF47A712878B1FBF0F00A49096843
:10154000B1FBF0F000F002FB48B9102C07D20022EA
:101550002146501E00F030F800206C6070BD012064
:1015600070BD0000300000203C0000200A4808B593
:10157000016841F480410160006800F480400090FF
:101580000548001F016841F080510160006800F0CB
:101590008050009008BD000044380240002809DB5C
:1015A00000F01F02012191404009800000F1E0207D
:1015B000C0F8001170470000F0B40E4B1B680C46D9
:1015C000C3F30223C3F10705042D00D90425191D17
:1015D000072901D2002300E0DB1E012606FA05F1EF
:1015E000491E214099409E40761E16403143F0BC72
:1015F00001F0B2BB0CED00E0064900F007020868FC
:101600004FF6FF03184040EA0220034A10430860E7
:10161000704700000CED00E00000FA052DE9F047EE
:101620000E46050065D0DFF81481D8F80000F7B247
:1016300000F00F00B04207D288F80070D8F8000020
:1016400000F00F00B04254D128683D4C810712D5FC
:10165000400703D5206840F4E05020602878000758
:1016600003D5206840F4604020602068A96820F01D
:10167000F000084320602878C0072DD03049686802
:101680000839012812D0022813D0032811D0096884
:10169000890700292DDA216821F003010143216027
:1016A000FFF756FD814641F2883A0EE0096889034A
:1016B000EFE709688901ECE7FFF74AFDA0EB0901B4
:1016C000514502D90320BDE8F0872068696800F021
:1016D0000C00B0EB810FEFD1D8F80010404601F0BC
:1016E0000F01B14207D90770006800F00F00B04247
:1016F00001D00120E7E72878400705D52068E96890
:1017000020F4E050084320602878000706D52068C0
:10171000296920F4604040EAC100206000F038F8F8
:101720002168084AC1F30311515CC84006490860AA
:1017300006480068FFF7FAFE0020C4E7003C0240BC
:10174000083802403C3C00083C00002034000020E7
:101750000448054900680968044AC1F38221515CC4
:10176000C84070473C000020083802404C3C00084C
:101770000448054900680968044AC1F34231515CD4
:10178000C84070473C000020083802404C3C00082C
:10179000154810B5006810F00C02144813D0411021
:1017A000042A0FD0082A0ED10F4C241F2268236868
:1017B00002F03F025B0207D52068C0F38810A0FB4F
:1017C000010106E0084610BD2168C1F38811A1FBA4
:1017D00000010023FEF7F4FC2168C1F30141491C1C
:1017E0004900B0FBF1F010BD083802400024F400BD
:1017F0002DE9F84F04006ED02078DFF83C93C00745
:10180000A9F104054AD009F104000168C1F381017E
:10181000012908D00068C0F3810002280AD1D9F854
:101820000000400206D52868800337D5606800288C
:10183000E1D033E06068B0F5803F10D0B0F5A02F64
:10184000286810D020F480302860286820F4802098
:1018500028606068A8B1FFF77BFC06460DE02868A9
:1018600040F48030F4E740F480202860F7E700BFC0
:10187000FFF76EFC801B642873D828688003F7D5B7
:101880000CE0FFF765FC064605E000BFFFF760FCD3
:10189000801B6428F0D828688003F7D42078DFF80C
:1018A0009C8280074FF0000A3ED5A348001D0168C6
:1018B00011F00C0F08D00068C0F3810002280BD192
:1018C000D9F80000400207D42868800716D5E068E0
:1018D000012800D112E02BE1E068B8B10120C8F87E
:1018E0000000FFF735FC064605E000BFFFF730FCBF
:1018F000801B0228C0D828688007F7D5286821698E
:1019000020F0F80040EAC10028600DE0C8F800A00F
:10191000FFF71EFC064604E0FFF71AFC801B0228B6
:101920001FD828688007F7D42078000722D5824E78
:1019300083486169703671B101210160FFF708FCCD
:10194000074604E0FFF704FCC01B022809D83068F2
:101950008007F7D50EE0C0F800A0FFF7F9FB0746B7
:1019600005E082E0FFF7F4FBC01B02287DD8306859
:101970008007F7D42078400768D5DFF8BCB100278E
:101980000BF13C0BDBF80000C0000BD4DBF80010BF
:1019900041F08051CBF80010DBF80000012700F087
:1019A00080500090674E3068C00510D4306840F415
:1019B00080703060FFF7CCFB009005E0FFF7C8FBBC
:1019C0000099401A022850D83068C005F6D55A4E02
:1019D000A0686C3601280FD00528306810D020F0A0
:1019E00001003060306820F004003060A068B8B1B9
:1019F000FFF7AEFB00900FE0306840F00100F4E725
:101A000040F004003060F7E7FFF7A2FB0099411AAD
:101A100041F28830814266D830688007F4D50EE004
:101A2000FFF796FB009007E0FFF792FB0099411A41
:101A300041F28830814256D830688007F4D42FB103
:101A4000DBF8001021F08051CBF80010A069C8B37A
:101A50003949091D0968C1F3810102294AD00228C8
:101A6000504607D0C8F8600000E03CE0FFF770FB8C
:101A700004463BE04746C8F86000FFF769FB0646AE
:101A800005E000BFFFF764FB801B02282BD8286805
:101A90008001F7D4D4E907010843A16A2A4A49081A
:101AA00002EB0141626A41EA8211084394F82C106A
:101AB00040EA0161C9F8001001203866FFF748FBD1
:101AC000044606E036E000BFFFF742FB001B022899
:101AD00009D828688001F7D52CE000BFFFF738FB54
:101AE000001B022802D90320BDE8F88F2868800176
:101AF000F4D41FE00128F7D0D9F80000E26900F41F
:101B00008001914214D1226A00F03F0191420FD12D
:101B100047F6C071626A0140914209D1A26A00F49D
:101B20004031914204D1E16A00F07060884201D0F6
:101B30000120D9E70020D7E70438024000004742DF
:101B4000800E4742007000400000FFFF10B5401EAD
:101B5000B0F1807F01D3012010BD4FF0E02460611F
:101B60000F21601701F0F8F80020A0610720206124
:101B7000002010BD10B590F83C20012A22D001228F
:101B800080F83C20CA688C6822F4407222434C687A
:101B900022F4806222430C6822F4006222430C6922
:101BA00022F4805222434C6922F400522243C96934
:101BB000002322F480420A4301684A6480F83C30E2
:101BC000002010BD022010BD70B590F83C20012A05
:101BD00032D0012480F83C40022280F83D20036886
:101BE0005A689D6822F070060A6832435A60134BA7
:101BF00002689A4214D0B2F1804F11D0104B9A4231
:101C00000ED0104B9A420BD00F4B9A4208D00F4B7C
:101C10009A4205D00E4B9A4202D00E4B9A4204D102
:101C2000496825F080031943916080F83D40002108
:101C300080F83C10084670BD022070BD00000140D5
:101C40000004004000080040000C00400004014077
:101C5000004001400018004010B5040003D094F883
:101C60003D0010B107E0012010BD002084F83C00C9
:101C7000204600F00DF8022084F83D00211D206868
:101C800000F08CFD012084F83D00002010BD000014
:101C900008B500680649884208D10648016841F045
:101CA00001010160006800F00100009008BD000023
:101CB000000001404438024070B5044690F83C00F2
:101CC000012817D0012584F83C50022084F83D00FB
:101CD0002068826822F0770222F47F4282600868DE
:101CE000502830D00DDC20284DD005DC98B31028CA
:101CF0003BD148E0022070BD302844D0402834D188
:101D000039E0602828D0702806D0B0F5805F2CD04C
:101D1000B0F5005F29D10AE0CB68D1E90121206844
:101D200000F0ADFD2068816841F0770109E0CB68E3
:101D3000D1E90121206800F0A2FD2068816841F40A
:101D40008041816011E0CA684968206800F06CFE3B
:101D50005021206807E016E0CA684968206800F052
:101D600074FE6021206800F094FD84F83D5000204E
:101D700084F83C0070BDCA684968206800F054FED1
:101D800040212068EFE7226801461046EBE700009B
:101D900010B586B0044614216846FEF749FA0E498C
:101DA0002068884216D10D480021026842F01002D6
:101DB0000260006800F0100005904FF42060009071
:101DC0000220CDE901010120CDE903106946044854
:101DD000FFF7D0F806B010BD0000014030380240D7
:101DE0000010024070B5044690F83C000D460128F2
:101DF0000DD0012684F83C60022084F83D0042B1F9
:101E0000042A18D0082A2AD00C2A4DD139E0022001
:101E100070BD206800F046FD2068816941F008012E
:101E200081612068816921F00401816120688169F4
:101E30002A69114311E0206800F064FD206881697F
:101E400041F4006181612068816921F480618161D0
:101E5000206881692A6941EA0221816124E02068C1
:101E600000F086FD2068C16941F00801C161206869
:101E7000C16921F00401C1612068C1692A69114367
:101E800011E0206800F0A8FD2068C16941F40061FC
:101E9000C1612068C16921F48061C1612068C169A4
:101EA0002A6941EA0221C16184F83D60002084F87A
:101EB0003C0070BD10B5040003D094F83D0010B193
:101EC00007E0012010BD002084F83C00204600F00F
:101ED0000CF8022084F83D00211D206800F05EFC13
:101EE000012084F83D00002010BD704710B5044665
:101EF0000068012200F0B6FC0B492068884202D03D
:101F00000A49884203D1416C41F400414164206890
:101F1000816801F00701062903D0016841F0010141
:101F20000160002010BD00000000014000040140DD
:101F30007047000070B5026804461068D1685369A4
:101F400010F00F0F53D003F0010501F490762E43EB
:101F50005FD0C20705D0CA0503D5E26B42F001028B
:101F6000E263420705D5DA0703D0E26B42F00202D2
:101F7000E263820705D5DA0703D0E26B42F0040280
:101F8000E263020707D501F020022A4303D0E26B87
:101F900042F00802E263E26B002A34D0800604D5E6
:101FA000880602D5204600F07FFD20684069E16B7D
:101FB000C0F3801001F008010143204624D000F056
:101FC00065FD2068416949061AD5416921F0400143
:101FD0004161606BA0B11B490165606BFEF766FF54
:101FE000002810D0606B016DBDE870400847830683
:101FF0000FD58B060DD52046BDE8704000F054BDCE
:102000002046FFF795FF70BDFFF792FF0020E063C9
:1020100070BD030606D50B0604D52046BDE870400A
:1020200000F022BE4006F3D54806F1D5D16820461F
:1020300021F04001D160202184F8391000F0D2F85D
:1020400070BD00007D2A000870B5040004D094F82B
:102050003900002510B106E0012070BD84F8385029
:10206000204600F023F8242084F839002068C16855
:1020700021F40051C160204600F062FD2068016932
:1020800021F4904101612068416921F02A014161F8
:102090002068C16841F40051C160E563202084F8E4
:1020A000390084F83A00002070BD000010B586B0F9
:1020B000044614216846FEF7BBF818492068884298
:1020C00029D11748016841F400210160006800F43B
:1020D0000020059012481038016841F004010160A9
:1020E0000068694600F0040005904FF440600090DD
:1020F0000220019001200290032003900820049008
:102100000848FEF737FF002211463420FFF754FA43
:102110003420FFF743FA06B010BD0000004C004029
:10212000403802400008024070472DE9F843044659
:1021300090F839001F4616460D46202850D1B5B1FB
:10214000AEB194F8380001284AD0012084F8380054
:102150004FF00008C4F83C80212084F83900FEF7D5
:10216000F7FFA6848146E68484F8388026E00120C3
:10217000BDE8F883E08C401EE084A0684B46B0F5D3
:10218000805F4FF000024FF080012046009703D09F
:1021900000F09BFDE8B90DE000F097FDC8B9288874
:1021A0002168C0F308004860206908B16D1C05E093
:1021B000AD1C03E0216815F8010B4860E08C002895
:1021C000D8D14B46002240212046009700F07DFDEB
:1021D00008B10320CCE7202084F839000020C7E7AD
:1021E0000220C5E77047FEE701684A69D2435205FD
:1021F0000FD46FF480624A61002140F8301F202222
:1022000042738173026942F004020261017301208A
:102210007047002070470000F8B50446C06A1E46AB
:102220000D461746082807D0012805D010F5803F35
:1022300002D0206B122804D12068016841F480711B
:102240000160134600224FF001112046009600F075
:1022500057F840B120680068C00502D54FF40070FF
:1022600020640320F8BD2069B0F5804F0ED0062011
:10227000216800EAD51040F0F000086133463A4684
:102280000B49204600F070F878B902E005F0FE0036
:1022900000E0E8B221680861054933463A46891FE3
:1022A000204600F061F80028DCD00120F8BD0000D5
:1022B0000800010070B516460D4604460DE02046A4
:1022C000FFF792FF08B1012070BD681C05D0FEF732
:1022D0003FFF801BA84207D835B120684069C04342
:1022E0004007ECD4002070BD002044F8300F2021BE
:1022F0006173A073216941F0200121612073E2E73D
:102300002DE9F0471E4690460D460446C1F30747A7
:10231000DDF8209008E0701C06D0FEF719FFA0EB56
:102320000900B0420FD876B12068012F18D080691B
:1023300025EA00000004000C14D000214145EAD039
:102340000020BDE8F087002044F8300F20216173A1
:10235000A073216941F02001216120730120F0E781
:102360004069E5E70121E9E72DE9F0479A46914602
:102370000E46044600254FF02008C1F3074725E02C
:1023800020684069C043400514D42068016841F4C6
:102390000071016021686FF480604861256384F8F2
:1023A0003D8084F83E50206C40F00400206484F8A6
:1023B0003C501FE0B9F1FF3F08D0FEF7C9FEA0EB8B
:1023C0000A0149450CD8B9F1000F09D02068012F46
:1023D00013D0806926EA00000004000C0BD0CFE780
:1023E00044F8305F84F80D80A573206940F0200028
:1023F000206125730120BDE8F0874069EAE770B5E8
:1024000016460D4604460DE02046FFF7EDFE08B1E6
:10241000012070BD681C05D0FEF79AFE801BA84203
:1024200007D835B120684069C0430006ECD40020CD
:1024300070BD002044F8300F20216173A073216922
:1024400041F0200121612073E2E700007FB5002404
:1024500011480094019402940E490394C0E90014B9
:10246000846001250461057680F820400B49C0E9AD
:102470000A14C561C46080F830404561FEF7CDFBA9
:1024800006200094CDE9015069460348FEF77CFA26
:102490007FBD000000200140680000200100000F07
:1024A0002DE9F04F87B014216846FDF7C1FE4F4873
:1024B0000024016841F080010160016801F08001A1
:1024C0000591016841F001010160016801F001011D
:1024D0000591016841F002010160016801F002010B
:1024E0000591016841F010010160016801F01001DF
:1024F0000591016841F008010160016801F00801DF
:102500000591016841F00401016000684FF4A047A3
:1025100000F004000590012239463548FEF712FE0E
:10252000DFF8D0A04FF4A058012241465046FEF7F4
:1025300009FEDFF8C4B04FF460490022494658460E
:10254000FEF700FE0226CDE9006469462B4802949E
:10255000FEF710FD052001258DE831006946504643
:10256000FEF708FD38118DE8310069462048FEF776
:1025700001FD0097CDE9015469461D480394FEF71B
:10258000F9FCCDF80080CDE901546946504603942A
:10259000FEF7F0FCCDF80090CDE9015469465846AD
:1025A0000394FEF7E7FC164F0420CDE900076946C7
:1025B00002965846FEF7DEFC0095CDE901746946A7
:1025C0000B48FEF7D7FC002201210620FEF7F4FF9E
:1025D0000620FEF7E3FF002202210820FEF7ECFFB1
:1025E0000820FEF7DBFF07B0BDE8F08F303802406F
:1025F0000010024000040240000C024000000240B3
:102600000000111010B596B000240F94109411948E
:10261000129413941C2168461494FDF709FE20219E
:1026200007A8FDF705FE22482049016042F2CF01CC
:10263000C0E90114C721C0E9031444618461FFF7B4
:102640000BFB4FF480500F900FA91948FFF734FB94
:102650001748FFF72FFC139413A915481494FFF79C
:10266000B3FA6020CDE90004029403940494059425
:10267000002269460E480694FFF7B4FB042269461F
:102680000B48FFF7AFFB0794089409944FF40050F0
:102690000A94CDE90B4007A905480E94FFF76AFAA2
:1026A0000348FFF775FB16B010BD000000000140A5
:1026B00058010020FEE77047704770470448022128
:1026C000016000214160816001460248FEF752BC72
:1026D000D8010020000002400548022101600121CC
:1026E00041600021C16001460248FEF743BC000082
:1026F000D801002000000240FEF7F6BE30B593B0CE
:1027000030216846FDF794FD14210CA8FDF790FDDB
:1027100019480025016841F080510160006800F00F
:10272000805011901548016841F4804101600068B3
:10273000022400F4804011900120039010200490A6
:10274000009406940820CDE90750A820CDE909049B
:1027500004200B906846FFF74BF80CA90F2081E886
:1027600031004FF4A0500F90109005210CA8FEF7F7
:1027700055FF13B030BD00004038024000700040EB
:102780000548016841F47001016003494FF00060A1
:10279000803908607047000088ED00E0F0B50268FD
:1027A000254C264D264E274F274B4FF0804CA042FC
:1027B00009D0604507D0A84205D0B04203D0B84246
:1027C00001D0984204D122F0700E4A6842EA0E020B
:1027D000A0421BD0604519D0A84217D0B04215D0F6
:1027E000B84213D0984211D0184DA8420ED0184DBF
:1027F000A8420BD0174DA84208D0174DA84205D0CB
:10280000164DA84202D0164DA84203D122F44075BD
:10281000CA682A434D6922F080022A4302608A680E
:10282000C2620A688262A04201D0984201D109695D
:10283000016301214161F0BD00000140000400403E
:1028400000080040000C004000040140004001402E
:10285000004401400048014000180040001C0040B6
:102860000020004010B501F01F030121046A9940C7
:102870008C430462016A9A401143016210BD10B595
:10288000846842EA032224F47F440A43224382609C
:1028900010BD826822F070020A4342F00701816095
:1028A00070470000F0B5026A22F001020262036A7A
:1028B00042688469124E24F073050C682C4323F09F
:1028C00002058B682B430D4DA84201D0B04205D1C3
:1028D00023F00807CB683B4323F00403A84201D050
:1028E000B04205D14D6922F4407215438A692A43EA
:1028F00042608461496841630362F0BD00000140A9
:1029000000040140F0B5026A22F010020262026A7D
:10291000436884690D6824F4E64444EA05248D681C
:1029200022F0200242EA05120F4D104EA84201D0BB
:10293000B04206D1CF6822F0800242EA071222F0AC
:102940004002A84201D0B04207D14D6923F4406350
:1029500043EA85038D6943EA8503436084614968DE
:1029600081630262F0BD00000000014000040140EC
:10297000F0B5026A22F480720262026A4368C46996
:1029800022F4007224F073050C68124E2C438D68FB
:1029900042EA05220E4DA84201D0B04206D1CF68CE
:1029A00022F4006242EA072222F48062A84201D0A7
:1029B000B04207D14D6923F4405343EA05138D69B2
:1029C00043EA05134360C4614968C1630262F0BD14
:1029D000000001400004014030B5026A22F4805238
:1029E0000262046A4268C3690D6823F4E64343EA5D
:1029F00005238D6824F4005444EA0534084DA842A8
:102A000002D0084DA84204D14D6922F4804242EA26
:102A100085124260C36149680164046230BD0000F0
:102A2000000001400004014010B5036A046A24F06C
:102A300001040462846924F0F00444EA021423F0DF
:102A40000A020A438461026210BD10B5036A23F0D2
:102A5000100303628369046A23F4704343EA023279
:102A600024F0A00343EA01118261016210BD00005D
:102A70000148FFF75FBA00009801002010B5806B95
:102A80000021C185C184FFF753FA10BD0168CA68EF
:102A900022F49072CA6001684A6922F001024A6118
:102AA000202180F83A10704710B590F83A1022298A
:102AB00001D0022010BD8168B1F5805F11D001699D
:102AC000002901681FD0496801F07F03816A4A1C10
:102AD00082620B70C18D491E0904090CC18518D092
:102AE0002BE00269816A002A0268526805D0D2B2DE
:102AF0000A80816A491C8162ECE7C2F308020A80FD
:102B0000816A891CF7E74A68816A4B1C83620A70F4
:102B1000E0E70168CA6822F02002CA600168CA685A
:102B200022F48072CA6001684A6922F001024A6197
:102B3000202180F83A10FFF7F7FA002010BD0000BE
:102B40002DE9F041044600680169E26821F4405132
:102B5000114301612169A068E26908436169114379
:102B600008432168CA6849F20C639A430243CA6069
:102B700020684169A26921F4407111434161E06913
:102B8000192764253226B0F5004F354A35492068AB
:102B90004FF0000806D0884201D0904236D1FEF7AF
:102BA000E7FD35E0884201D0904202D1FEF7E0FD1A
:102BB00001E0FEF7CDFD61684A18A0FB070148EB74
:102BC0000803FDF7FDFA0146B0FBF5F00201B1FB89
:102BD000F5F06FF01803584301EB800006EBC000DE
:102BE000B0FBF5F000F0F80002EB4002B1FBF5F0AD
:102BF000584301EB800006EBC000B0FBF5F000F09D
:102C00000700216810448860BDE8F081FEF7A0FD50
:102C100061688B0F8A00A0FB0701FDF7D1FA01461E
:102C2000B0FBF5F06FF01802504301EB800006EBAB
:102C30000010B0FBF5F000F0F002B1FBF5F002EB94
:102C40000012B1FBF5F06FF01803584301EB800060
:102C500006EB0010B0FBF5F000F00F00D1E700002C
:102C6000001401400010014090F83910212901D0D2
:102C7000022070478168B1F5805F016A0BD04A1C61
:102C80000262026809785160C18C491E0904090C6E
:102C9000C1840ED017E009880268C1F308015160B1
:102CA00001690029016A02D0491C0162ECE7891C14
:102CB000FBE70168CA6822F08002CA600068C16848
:102CC00041F04001C160002070472DE9F041984675
:102CD00017460E460446069D1DE0681C1BD02DB10C
:102CE000FEF736FAA0EB0800A84214D92068C168A4
:102CF00021F4D071C1602068416921F00101416176
:102D0000202084F8390084F83A00002084F8380044
:102D10000320BDE8F0812068006836EA000004D096
:102D20000020B842D9D00020F3E70120F9E7FEE700
:102D30000FB4084B10B504A902AA039800F02CF8B0
:102D4000044602A9002000F0D1F8204610BC5DF82E
:102D500014FB0000ED2E00080907090E002804DB13
:102D600000F1E02080F80014704700F00F0000F13F
:102D7000E02080F8141D704702E008C8121F08C147
:102D8000002AFAD170477047002001E001C1121FEC
:102D9000002AFBD1704700002DE9FF4F89B09B4608
:102DA0000446002506E025280BD05A460B9990478B
:102DB000641C6D1C20780028F5D10DB02846BDE8B4
:102DC000F08F0027B8460122474900E0074314F876
:102DD000013F203B02FA03F00842F7D120782E2869
:102DE00019D114F8010F47F004072A280ED06FF00C
:102DF0002F022078A0F1300109290CD808EB8801B6
:102E000002EB410100EB0108641CF2E70A98641C24
:102E100050F8048B0A9020780028CED0642808D07F
:102E2000692806D075281ED05A460B9990476D1C0C
:102E300058E00A994FF00A0901C90A91002802DAFC
:102E400040422D2102E0390504D52B218DF82010B8
:102E5000012103E0F90704D02021F7E78A4608AEF4
:102E60000DE00021FAE70A994FF00A0901C90A9119
:102E7000F7E74946FDF7E5FB303106F8011D00286C
:102E8000F7D1ADEB060000F12009780701D44FF02F
:102E90000108C84502DDA8EB090000E000208046DB
:102EA000002706E008A85A46C05D0B9990476D1CA4
:102EB0007F1C5745F6DB04E030205A460B999047BB
:102EC0006D1CB8F10001A8F10108F5DC05E016F869
:102ED000010B5A460B9990476D1CB9F10001A9F1FD
:102EE0000109F4DC641C65E7092801000A68531C29
:102EF0000B6010707047000070B50E4C0020207001
:102F0000282000F02EF80C4D02212846FEF70EF97D
:102F100048B9502000F025F802212846FEF706F9AE
:102F2000012800D1207002212846FEF7FFF8012871
:102F3000F9D070BD00000020000002400CB5002355
:102F400045F6C0511A46009308E00193019A521CBD
:102F500001928A42FAD3009A521C00928242F4D320
:102F60000CBD0CB500EB4000C000019000200199A1
:102F70000090884201D2401CF9E70CBD30B589B001
:102F8000002000900190029000F080F92DA000F048
:102F900025FA4FF47A752846FFF7D0FF00F076F94E
:102FA00001242DA000F01AFA0A212F48FDF740F95C
:102FB00000F0E8FB2C48FDF752F908B32B492A48EA
:102FC000FDF754F9F0B100F061F929A000F006FA1C
:102FD000C4F103022AA103A8FFF7AAFE0DF10C0019
:102FE00000F0FCF92846FFF7A9FF641C032CD8DD8C
:102FF00027A000F0F3F92846FFF7A0FF09B030BD85
:1030000027A0EDE700F042F92AA000F0E7F90A2135
:103010001548FDF70DF900F0B5FB0A221249684684
:10302000FDF711F90A2269461048FDF70CF900F086
:103030002DF925A000F0D2F92846FFF77FFF00F018
:1030400025F9DBE74C65742773206368616E67655B
:1030500020706173730000004E686170206D6174B0
:10306000206B6861753A00004000002024000020B9
:10307000536169206D6174206B6861750000000008
:10308000436F6E20256420636F20686F6900000025
:1030900053616920717561206E6869657521000052
:1030A00043687561206E686170206D6174206B6883
:1030B000617500004E686170206D6174206B6861FD
:1030C00075206D6F693A0000446120646F69206D5E
:1030D0006B210000F0B54A4C85B00025257100F049
:1030E000D5F848A000F07AF96079032879D84949E1
:1030F000002004F124020B5C165CB34203D020795B
:10310000401C207102E0401C0A28F4DB2079424F69
:103110004FF48046002830D06079401C6071002157
:10312000084600F073F93DA000F058F960793FA11E
:10313000C0F104026846FFF7FBFD0121002000F00A
:1031400065F9684600F04AF9002231463846FDF735
:10315000F9FFA5700A212F48FDF76AF86420FDF7F2
:10316000B7FE00F093F80021084600F04FF934A0B4
:1031700000F034F94FF4FA7039E0657100F086F828
:103180000021084600F042F932A000F027F9A570AE
:103190000A212048FDF74CF8C820FFF7CFFE00F0C9
:1031A00075F80021084600F031F92EA000F016F95C
:1031B000B42000F09BFA2F4C216848634FF42F7025
:1031C000FFF7BCFE012231463846FDF7BBFF002069
:1031D00000F08CFA216848630121084600F016F9D6
:1031E00000E00BE024A000F0F9F84FF49660FFF740
:1031F000A5FE00F04BF803A000F0F0F805B0F0BD1C
:1032000000000020484159204E4841502050415371
:10321000533A000040000020000C02405361692036
:103220006D6174206B6861750000000042616E2062
:10323000636F6E20256420636F20686F6900000053
:103240004E686170206C6169206D6174206B6861EB
:103250007500000044756E67206D6174206B6861B5
:10326000750000004F50454E2054484520444F4FB4
:103270005200000058010020202020202057454CFB
:10328000434F4D45202020202000000010B5012094
:1032900000F02EF8BDE810400520FFF74FBE0000FB
:1032A0001CB500F0F00141F00C028DF8042041F053
:1032B00008018DF805100C2141EA00118DF8061067
:1032C000082141EA00108DF807000A24042301AA0E
:1032D0004E2106480094FEF705F80448042301AA8D
:1032E0004E2154300094FDF7FDFF1CBDB0000020BE
:1032F0001CB500F0F00141F00C028DF8042041F003
:1033000008018DF805100C2141EA00118DF8061016
:10331000082141EA00108DF807000A2000900423DC
:1033200001AA4E210148FDF7DDFF1CBD040100206C
:103330001CB500F0F00141F00D028DF8042041F0C1
:1033400009018DF805100D2141EA00118DF80610D4
:10335000092141EA00108DF807000A20009004239B
:1033600001AA4E210348FDF7BDFF0220FFF7E6FD4D
:103370001CBD0000B00000201CB500F0F00141F0C1
:103380000D028DF8042041F009018DF805100D2182
:1033900041EA00118DF80610092141EA00108DF86C
:1033A00007000A200090042301AA4E210348FDF7DC
:1033B00099FF0220FFF7C2FD1CBD000004010020A0
:1033C00070B50546002403E0285DFFF7B1FF641CDB
:1033D0002846FCF744FFA042F6D870BD70B50546FC
:1033E000002403E0285DFFF7C7FF641C2846FCF7B4
:1033F00036FFA042F6D870BD28B1012805D1C031F2
:10340000C8B2FFF74DBF8031FAE7704728B10128F5
:1034100005D1C031C8B2FFF76BBF8031FAE7704702
:1034200010B53320FFF73CFF3220FFF739FF28208B
:10343000FFF736FF0C20FFF733FF0620FFF730FFC2
:103440000120FFF72DFF3320FFF752FF3220FFF757
:103450004FFF2820FFF74CFF0C20FFF749FF062005
:10346000FFF746FF0120FFF743FFBDE810400F20A4
:10347000FFF764BDB0B0FEF73FF8FFF73FF9FFF785
:103480000FF8FEF7E3FF6E486C496E4D00240160B3
:10349000C0E901540E14C0E9034644618461C4616B
:1034A0000462FDF75BFE66486749E83001604FF44F
:1034B000E131C0E901140C21C460C0E90441846118
:1034C000C461FEF7C1FD5E48604954300160C0E947
:1034D0000154C0E9034644618461C4610462FDF79C
:1034E0003DFEFFF78FF856480021A830FEF7FEFC9E
:1034F00053480421A830FEF7F9FCFFF791FF0021A3
:103500000846FFF779FF52A0FFF75AFF53A0FFF7D5
:1035100065FF77004A4D554CDFF8548140F68C2604
:10352000A8354FF4167900BF00F02CF92069012866
:1035300053D1FDF70FFAFFF7DFFC00F0ADF8A071F3
:1035400000F0AAF8E07100F0A7F8207200F0A4F8EB
:103550006072217A6161E061A079A061E079206206
:1035600000F09AF8A08100210846FFF745FF41A12D
:103570006846E3696269FFF7DBFB6846FFF720FFF7
:103580003FA126A8E3696269FFF7D2FB2C483223EA
:10359000112226A9E830FEF7C8FDC820FFF7CEFCAF
:1035A00000210120FFF728FF37A119A8236AA2698B
:1035B000FFF7BEFB19A8FFF703FF31A12BA8236A71
:1035C000A269FFF7B5FB1E48322311222BA9E83070
:1035D000FEF7ABFDC820FFF7B1FC2069401C20615D
:1035E000052801D10120206115484838FDF7CAFBA4
:1035F00013481E214838FDF773FB11484838FDF782
:103600006BFA60810E484838FDF732FC3946404677
:10361000FDF791FD3220FFF791FC6089B0424846EA
:1036200003D8FFF78BFCB42002E0FFF787FC0020F3
:1036300000F05CF82968886376E7000000540040D9
:10364000B0000020A0860100004C0040005C00405B
:1036500048454C4C4F20574F524C4400484159204C
:103660004E48415020504153533A00000000002082
:10367000000C024054656D703A2025642E256400CC
:1036800025642E256400000068756D69646974798D
:103690003A2025642E2564002DE9F0410025124EC4
:1036A0002C46012702213046FDF740FD0028F9D0C5
:1036B0002820FFF756FC02213046FDF737FD012890
:1036C00005D1C4F1070107FA01F02843C5B2022170
:1036D0003046FDF72BFD0028F9D1641CE4B2082C1C
:1036E000E0D32846BDE8F0810000024010B5B428C0
:1036F0002DED028B00D9B420FCF74EFF9FED171B78
:1037000053EC112BFCF7D9FE9FED161B53EC112B3C
:10371000FCF761FE9FED158B53EC182BFCF7B4FD05
:10372000FCF773FFFCF75EFF9FED121B53EC112BB0
:10373000FCF7C3FE9FED111B53EC112BFCF74BFE66
:10374000FCF763FFFCF74EFF53EC182BFCF79CFDD6
:10375000FCF72FFFBDEC028BC0B210BD00000000D3
:1037600000806640000000000000004000000000F3
:103770000000E03F000000000000344000000000B6
:10378000000069402DE9F05FFF4E00224FF48051A8
:103790003046FDF7D7FCFD4F01213846FDF7C6FC4A
:1037A000FB4DFC4C28BB0A20FDF792FB012138465B
:1037B000FDF7BCFC0028F9D0A0780122F6A12A541C
:1037C000F3480A30FFF7B4FAA1780120FFF71EFE94
:1037D000EF480A30FFF702FEC820FFF7AFFBA178E1
:1037E0000120FFF713FEEDA0FFF7F8FDA078401CC5
:1037F000A07004213846FDF799FC28BB0A20FDF78C
:1038000067FB04213846FDF791FC0028F9D0A07829
:103810000422E1A12A54DE480A30FFF789FAA17890
:103820000120FFF7F3FDDA480A30FFF7D7FDC82083
:10383000FFF784FBA1780120FFF7E8FDD7A0FFF791
:10384000CDFDA078401CA0704FF4807949463046E9
:10385000FDF76CFC28BB0A20FDF73AFB49463046D1
:10386000FDF764FC0028F9D0A0780722CAA12A54E9
:10387000C7480A30FFF75CFAA1780120FFF7C6FDC0
:10388000C3480A30FFF7AAFDC820FFF757FBA1780D
:103890000120FFF7BBFDC1A0FFF7A0FDA078401CF1
:1038A000A0704FF4806A51463046FDF73FFC4FF060
:1038B000000BC8B90A20FDF70BFB51463046FDF757
:1038C00035FC0028F9D0A07870B1401EC1B2A170BB
:1038D00005F801B00120FFF799FDB1A0FFF77EFDCB
:1038E000A1780120FFF792FD012211033046FDF778
:1038F00029FC00224FF480413046FDF723FC0121D2
:103900003846FDF713FC28BB0A20FDF7E1FA012138
:103910003846FDF70BFC0028F9D0A07802229EA1C2
:103920002A549B480A30FFF703FAA1780120FFF7D9
:103930006DFD97480A30FFF751FDC820FFF7FEFAEA
:10394000A1780120FFF762FD94A0FFF747FDA07862
:10395000401CA0700421B8463846FDF7E7FB30BB99
:103960000A20FDF7B5FA474604213846FDF7DEFB8D
:103970000028F9D0A078052287A12A5484480A306B
:10398000FFF7D6F9A1780120FFF740FD80480A3003
:10399000FFF724FDC820FFF7D1FAA1780120FFF737
:1039A00035FD7EA0FFF71AFDA078401CA0704F46A1
:1039B00049463046FDF7BAFB28BB0A20FDF788FAD6
:1039C00039463046FDF7B2FB0028F9D0A07808222E
:1039D00071A12A546E480A30FFF7AAF9A178012094
:1039E000FFF714FD6A480A30FFF7F8FCC820FFF71C
:1039F000A5FAA1780120FFF709FD68A0FFF7EEFC0A
:103A0000A078401CA07051463046FDF78FFB30BBBC
:103A10000A20FDF75DFA39463046FDF787FB00289E
:103A2000F9D0A0785A465CA105F800B058480A3091
:103A3000FFF77EF9A1780120FFF7E8FC54480A302F
:103A4000FFF7CCFCC820FFF779FAA1780120FFF737
:103A5000DDFC52A0FFF7C2FCA078401CA070012240
:103A60009103B1463046FDF76DFB002251464646B4
:103A70004046FDF767FB01213046FDF757FB28BBA9
:103A80000A20FDF725FA01213046FDF74FFB0028FB
:103A9000F9D0A078032240A12A543D480A30FFF70C
:103AA00047F9A1780120FFF7A7FC39480A30FFF752
:103AB00095FCC820FFF742FAA1780120FFF7A6FC89
:103AC00036A0FFF78BFCA078401CA0700421304684
:103AD000FDF72CFB28BB0A20FDF7FAF9042130463C
:103AE000FDF724FB0028F9D0A07806222AA12A5449
:103AF00027480A30FFF71CF9A1780120FFF77CFC6A
:103B000023480A30FFF76AFCC820FFF717FAA178AC
:103B10000120FFF77BFC21A0FFF760FCA078401C90
:103B2000A070B84639464F464846FDF7FFFA28BB15
:103B30000A20FDF7CDF941463846FDF7F7FA00288F
:103B4000F9D0A078092214A12A5411480A30FFF7AD
:103B5000EFF8A1780120FFF74FFC0D480A30FFF77E
:103B60003DFCC820FFF7EAF9A1780120FFF74EFCE1
:103B70000AA0FFF733FCA078401CA07055465146C0
:103B80003C4638460EE000000010024000040240AF
:103B90004000002000000020256400002A000000F2
:103BA00020000000FDF7C2FA58B90A20FDF790F98D
:103BB000474639462046FDF7B9FA0028F9D0FFF705
:103BC00089FA012229463046FDF7BCFA4FF48057A6
:103BD000002239463046FDF7B5FA29462046FDF762
:103BE000A5FA90B90A20FDF773F929462046FDF79A
:103BF0009DFA0028F9D0B420FFF778FD0E49096836
:103C000048634FF41670FFF799F901213046FDF72C
:103C10008DFA50B90A20FDF75BF901213046FDF716
:103C200085FA0028F9D0FFF7A9F939463046BDE8F2
:103C3000F05F0122FDF786BA580100200000000065
:103C4000000000000102030406070809000000004C
:103C500001020304743C0008000000204000000042
:103C6000782D0008B43C000840000020B00500009A
:103C7000882D000800000000000000000000000087
:103C80000000000001000000000000000000000033
:103C90000000000000000000010205040000000018
:103CA0000000000001000000100000000000000003
:043CB0000024F400F8
:040000050800018965
:00000001FF
