:020000040800F2
:10000000B00500209D010008B71C0008B3180008C7
:10001000B51C0008190400085B200008000000005F
:10002000000000000000000000000000BB1C0008F1
:100030004104000800000000B91C0008F91C000879
:10004000B7010008B7010008B7010008B7010008B0
:10005000B7010008B701000843040008B701000811
:10006000B7010008B7010008B7010008B701000890
:10007000B7010008B7010008B7010008B701000880
:10008000B7010008B7010008E5020008B701000841
:10009000B7010008B7010008B7010008B701000860
:1000A000B7010008B7010008B7010008B701000850
:1000B000B7010008B7010008B7010008B701000840
:1000C000B7010008B7010008B7010008B701000830
:1000D000B7010008B7010008B7010008B701000820
:1000E000B7010008B7010008B7010008B701000810
:1000F000B7010008B7010008B7010008B701000800
:10010000B7010008B7010008B7010008B7010008EF
:100110009D1D0008B7010008B7010008B7010008DD
:10012000B7010008B7010008B7010008B7010008CF
:10013000B7010008B7010008B7010008B7010008BF
:10014000B7010008B7010008B7010008B7010008AF
:10015000B7010008B7010008B7010008B70100089F
:10016000B7010008B7010008B7010008B70100088F
:10017000B7010008B7010008B7010008000000003F
:10018000B7010008B7010008DFF80CD000F098F8BC
:10019000004800474D260008B0050020064880476B
:1001A00006480047FEE7FEE7FEE7FEE7FEE7FEE75C
:1001B000FEE7FEE7FEE7FEE7811D00088901000873
:1001C0002DE9F05F0546002092469B46884606468C
:1001D000814640241BE0284641464746224600F01F
:1001E0005EF853465A46C01A914110D3114618463C
:1001F000224600F045F82D1A67EB01084F462246CB
:100200000120002100F03CF817EB00094E41201EB0
:10021000A4F10104DFDC484631462A464346BDE8E6
:10022000F09FD2B201E000F8012B491EFBD27047CB
:100230000022F6E710B513460A4604461946FFF7B2
:10024000F0FF204610BD421C10F8011B0029FBD115
:10025000801A704730B50B46014600202022012449
:1002600009E021FA02F59D4205D303FA02F5491B84
:1002700004FA02F52844151EA2F10102F1DC30BD9A
:10028000202A04DB203A00FA02F100207047914056
:10029000C2F1200320FA03F3194390407047202A4B
:1002A00004DB203A21FA02F00021704721FA02F320
:1002B000D040C2F120029140084319467047000027
:1002C000064C074D06E0E06840F0010394E80700A3
:1002D00098471034AC42F6D3FFF75AFF542C00086D
:1002E000742C0008014800F05CB900006800002090
:1002F000464910B54A6822F440324A604A68436869
:100300001A434A6001684A6822F480724A600168B0
:100310004A68036942EA03224A6001684A6822F097
:1003200040724A6001684A6883681A434A600168FB
:100330008A6822F400628A6001688A68C3681A4386
:100340008A60816A6FF07062D14201688A6822F027
:1003500070628A6001688A680CD0836A1A438A6076
:1003600001688A6822F040528A6001688A68C36A1C
:100370001A4301E022F040528A6001688A6822F044
:1003800002028A6001688A68037E42EA43028A6048
:1003900090F82010002901684A680FD042F40062EA
:1003A0004A6001684A6822F460424A6001684A680B
:1003B000174C436A04EB43331A4301E022F4006212
:1003C0004A600168CA6A22F47002CA620168CA6A95
:1003D000838B104C04EB03531A43CA6201688A688A
:1003E00022F400728A6001688A6890F8303042EA2C
:1003F00043228A6001688A6822F480628A60016808
:100400008A68406942EA8020886010BD002301406C
:1004100000E0FFFF0000F0FFFEE7000010B501F074
:100420005BFC00220221054800F0D0FB122001F005
:100430001BFFBDE8104001F041BC0000000002407D
:100440007047012000F0CEBA7047000078B5002454
:10045000009490F83C20012A19D0012280F83C2019
:100460000A6807230568092A13D9EE680A3A02EBDD
:10047000420293409E43EE600B788A680A3B03EB8E
:1004800043039A400368DD682A43DA6010E00220E3
:1004900078BD2E6902EB420293409E432E610B7899
:1004A0008A6803EB43039A4003681D692A431A6173
:1004B0004A681F23072A13D205686E6B521E02EB8F
:1004C000820293409E436E630B790A885B1E92B250
:1004D00003EB83039A4003685D6B2A435A6327E06A
:1004E00005680D2A12D22E6BD21F02EB82029340B6
:1004F0009E432E630B790A88DB1F92B203EB8303C2
:100500009A4003681D6B2A431A6311E0EE6A0D3AA4
:1005100002EB820293409E43EE620B790A880D3B08
:1005200092B203EB83039A400368DD6A2A43DA62DE
:10053000164B0568144A9D4206D10D68122D03D151
:10054000556845F48005556005689D4218D10B68D3
:10055000102B01D0112B13D1536843F400035360C7
:10056000096810290CD10A490A4A0968B1FBF2F15D
:1005700001EB8101490000E0491E00910029FBD1F7
:1005800080F83C40002078BD00230140002001405D
:100590003C00002040420F00704770470068C06C6C
:1005A000704770B50446006801684268C1F34001B5
:1005B000C2F3401251B34AB3216CC90603D4216C73
:1005C00041F400712164816811F0405F17D1217EF0
:1005D000A9B9C16A11F4700F02D0816849050ED41F
:1005E000416821F020014160206C20F4807020647B
:1005F000206CC00403D4206C40F00100206420462D
:10060000FFF7CAFF21686FF01200086020680168D8
:100610004268C1F38001C2F3C01289B382B3216C76
:10062000C90603D4216C41F400512164816811F49E
:10063000401F1ED1816B11F4401F02D08168490513
:1006400017D44168490514D4816811F0405F10D176
:10065000217E71B9416821F080014160206C20F455
:1006600080502064206CC00503D4206C40F0010051
:1006700020642046FFF7E8FE21686FF00C00086058
:1006800020680168426811F0010FC2F380120ED099
:100690006AB10068C0070AD0206C40F48030206442
:1006A000204600F046F821686FF0010008602068DD
:1006B00001684268C1F34011C2F3806200290DD085
:1006C000002A0BD0616C41F0020161646FF02005DB
:1006D00005602046FFF761FF2068056070BD70B5BA
:1006E00004004FF0000503D0206C002610B107E095
:1006F000012070BD204600F01DF8666484F83C605F
:10070000206CC00610D4206C20F4885040F0020009
:1007100020642046FFF7ECFD6664206C20F00200A8
:1007200040F00100206400E0012584F83C60284688
:1007300070BD704710B586B0044614216846FFF7B7
:1007400077FD15492068884224D1144800210268A9
:1007500042F480720260006800F4807005900F48D7
:100760001438026842F001020260006800F00100E3
:100770000590012000900320CDE901016946084859
:1007800000F03CF900221146122000F059FC122022
:1007900000F048FC06B010BD002001404438024083
:1007A000000002402DE9F041044600680D468168D2
:1007B0004FF0000749050BD58068C00508D5206CAF
:1007C00040F02000206484F83C700120BDE8F081F6
:1007D00000F002FA06460FE0681C0DD025B100F0CB
:1007E000FBF9801BA84207D9206C40F0040020646C
:1007F00084F83C700320E9E7206800688007EBD5A7
:1008000021686FF012000860206C40F400702064D2
:100810002068816811F0405F13D1217E89B9C16AD7
:1008200011F4700F02D0806840050AD4206C20F4C7
:1008300080702064206CC00403D4206C40F0010060
:1008400020640020C2E7000018B50021009190F854
:100850003C20012A07D0012280F83C2002689368DE
:10086000DB0702D011E0022018BD936843F00103BA
:1008700093602A4A2A4B1268B2FBF3F202EB42025F
:1008800000E0521E0092002AFBD102689368DB0749
:1008900041D0036C40F20164A34343F480730364CA
:1008A00053685B0505D5036C23F4005343F4805370
:1008B0000364036CDB0404D5436C23F00603436438
:1008C00000E0416480F83C1016496FF02203136089
:1008D00049680068CA06144906D088421BD181685D
:1008E00011F0405F13D016E08842F8D00F4A9042D2
:1008F00003D1D1F80423D206F1D00D4A90420AD197
:10090000D1F8041301F01F011029E8D303E0816836
:1009100041F080418160002018BD00003C000020B3
:1009200040420F000023014000200140002101400F
:100930000022014090F83C1001290CD0012180F8E0
:100940003C1001688A6822F001028A6001688968A7
:10095000C90702D007E002207047016C21F48851DA
:1009600041F001010164002180F83C100846704705
:1009700090F83510022903D080214165012070478D
:10098000052180F835100068016821F0010101603F
:100990000020704770B5044600F01EF90546601C43
:1009A00002D004480078044400F016F9401BA0422D
:1009B000FAD370BD3000002010B501280DD1C82039
:1009C00001F052FC054901224878401C4870BDE8FE
:1009D00010405103024800F0F9B810BD000000209B
:1009E000000C0240044910B50A68024202D00860B7
:1009F000FFF7E2FF10BD0000143C01402DE9F84F65
:100A000000224FF0010803254FF00F0E0B6808FA83
:100A100002F42340A3426ED14E68012E05D0022E6F
:100A200003D0112E01D0122E12D186684FEA420C4B
:100A300005FA0CF7BE43CF6807FA0CF73743876017
:100A40004668A6430C79C4F30014944034434460D0
:100A5000C668570005FA07FC8C6826EA0C06BC40FD
:100A60003443C4604C68022C01D0122C13D1D4083A
:100A700000EB8404A346D4F8209054074FEAD46ACC
:100A80000EFA0AF629EA06090E6906FA0AF646EA95
:100A90000906CBF8206006680C7926EA0C0604F0FB
:100AA0000304BC40344304604C68E40065D5364C14
:100AB000266846F480462660246822F0030604F483
:100AC00080440094314C3444A446D4F80848960736
:100AD000370F0EFA07F6B4432D4EB04201D100266F
:100AE00024E02C4EB04201D101261FE02A4EB04234
:100AF00002D102261AE040E0284EB04201D103267E
:100B000014E0274EB04201D104260FE0254EB0423A
:100B100001D105260AE0244EB04201D1062605E0A7
:100B2000224EB04201D1072600E00826BE402643EF
:100B3000CCF808681E4E34684F689C43FF0300D50C
:100B40001C4334601A4C241D26684F689E43BF0323
:100B500000D51E432660164E083634684F689C4305
:100B6000FF0200D51C433460114E0C3634684F68C8
:100B70009C43BF0200D51C433460521C102AFFF472
:100B800045AFBDE8F88F0000443802400030014016
:100B9000000002400004024000080240000C024035
:100BA000001002400014024000180240001C0240E5
:100BB000003C01400069084000D0012070474269B4
:100BC00031EA020200D10904816170470AB18161F2
:100BD00070470904FBE70000014880687047000087
:100BE0003000002070B5040025D094F83D000025A9
:100BF00020B984F83C50204600F04EF9242084F8B7
:100C00003D002068016821F0010101602068016851
:100C100041F4004101602068016821F40041016055
:100C200000F0DAFA4D4A6168914201D84C4900E07F
:100C30004C49884201D2012070BD4B492368B0FB6A
:100C4000F1F15E6826F03F060E435E6063689342F2
:100C500006D94FF4967359434FF47A73B1FBF3F10D
:100C60002368491C1E6A26F03F06314319626168F9
:100C7000914210D84900401EB0FBF1F2521CC2F361
:100C80000B02042A01D2042022E0B0FBF1F0401C48
:100C9000C0F30B001CE0A268F2B301EBC10303EB4D
:100CA0000116431EB3FBF6F35B1C43F480431B05A4
:100CB00049D092B301EBC10202EB0111401EB0FB1F
:100CC000F1F0401CC0F30B0040F4804040F40040C1
:100CD0002168CA694CF6FF739A431043C861D4E98E
:100CE000071001432068026822F0C002114301602E
:100CF000D4E9030101432068826848F2FF339A4334
:100D000011438160D4E9050108432168CA6822F0D3
:100D1000FF021043C86001E00EE016E020680168A1
:100D200041F0010101602564202084F83D00256325
:100D300084F83E50002070BD01EB4106431EB3FB1A
:100D4000F6F35B1CB3E70120C2E701EB4101401E53
:100D5000B0FBF1F0401CC0F30B00B7E7A086010028
:100D600080841E0000093D0040420F002DE9F84F2D
:100D70001F4690468A460446DDF82890FFF72CFF70
:100D8000054694F83D0020287FD1192301224049CF
:100D90002046009500F01AFE002876D194F83C0019
:100DA000012872D0012084F83C0020680168C9073E
:100DB00003D1016841F0010101602068016821F45C
:100DC00000610160212084F83D00102084F83E007D
:100DD00000262664C4F824806785608D20852D4810
:100DE000E0622B464A465146204600F07BFD90B912
:100DF000206841698069009036E02A4649462046CD
:100E000000F063FE50B1206C042804D12068016812
:100E100041F4007101600120BDE8F88F606A21682B
:100E200000780861606A401C6062618D491E6185BE
:100E3000218D491E89B2218522685369DB435B07F6
:100E40000BD451B100781061606A401C6062608D03
:100E5000401E6085208D401E20852A46494620463A
:100E600000F08EFD0028CED1208D0028C5D154F889
:100E70003D0B016841F400710160202004F81E0957
:100E8000E67766770020C7E7FFE70220C4E70000A7
:100E9000020010000000FFFF2DE9F04186B004467B
:100EA00014216846FFF7C4F92B4A2168DFF8AC80AB
:100EB0002A48122401250326042708F1100891422C
:100EC00019D1016841F0020101600068694600F033
:100ED00002000590C0208DE8F1002148FFF78EFD4B
:100EE000D8F8001041F40011C8F80010D8F800003C
:100EF00000F400102BE01B4A914229D1016841F017
:100F000004010160016801F004010591016841F0EC
:100F1000010101600068694600F00100059050156C
:100F20008DE8F1001048FFF769FD4FF480708DE8FF
:100F3000F10069460D48FFF761FDD8F8001041F453
:100F40000001C8F80010D8F8000000F40000059077
:100F500006B0BDE8F0810000005400403038024087
:100F600000040240005C0040000802400000024013
:100F70000248816802781144816070473000002087
:100F80000B4810B5016841F400710160016841F43B
:100F900080610160016841F480710160032000F00C
:100FA0006FF8002000F006F800F024F8002010BDD3
:100FB000003C024070B50D4D04464FF47A7128781C
:100FC000B1FBF0F00A490968B1FBF0F000F002FB58
:100FD00048B9102C07D200222146501E00F030F8EC
:100FE00000206C6070BD012070BD0000300000204A
:100FF0003C0000200A4808B5016841F480410160C6
:10100000006800F4804000900548001F016841F02E
:1010100080510160006800F08050009008BD000021
:1010200044380240002809DB00F01F0201219140F2
:101030004009800000F1E020C0F800117047000076
:10104000F0B40E4B1B680C46C3F30223C3F1070533
:10105000042D00D90425191D072901D2002300E021
:10106000DB1E012606FA05F1491E214099409E40EB
:10107000761E16403143F0BC01F004B80CED00E0E0
:10108000064900F0070208684FF6FF03184040EADF
:101090000220034A10430860704700000CED00E096
:1010A0000000FA052DE9F0470E46050065D0DFF88F
:1010B0001481D8F80000F7B200F00F00B04207D258
:1010C00088F80070D8F8000000F00F00B04254D14A
:1010D00028683D4C810712D5400703D5206840F4AD
:1010E000E05020602878000703D5206840F4604075
:1010F00020602068A96820F0F0000843206028786C
:10110000C0072DD0304968680839012812D002285C
:1011100013D0032811D00968890700292DDA216826
:1011200021F0030101432160FFF756FD814641F2A2
:10113000883A0EE009688903EFE709688901ECE75E
:10114000FFF74AFDA0EB0901514502D90320BDE894
:10115000F0872068696800F00C00B0EB810FEFD1D8
:10116000D8F80010404601F00F01B14207D90770CE
:10117000006800F00F00B04201D00120E7E72878B6
:10118000400705D52068E96820F4E0500843206056
:101190002878000706D52068296920F4604040EAD5
:1011A000C100206000F038F82168084AC1F303113B
:1011B000515CC8400649086006480068FFF7FAFE1F
:1011C0000020C4E7003C0240083802403C2C0008E4
:1011D0003C000020340000200448054900680968EC
:1011E000044AC1F38221515CC84070473C00002092
:1011F000083802404C2C000804480549006809687A
:10120000044AC1F34231515CC84070473C000020A1
:10121000083802404C2C0008154810B5006810F042
:101220000C02144813D04110042A0FD0082A0ED102
:101230000F4C241F2268236802F03F025B0207D58F
:101240002068C0F38810A0FB010106E0084610BD2D
:101250002168C1F38811A1FB00010023FEF7B0FF54
:101260002168C1F30141491C4900B0FBF1F010BDF8
:10127000083802400024F4002DE9F84F04006ED035
:101280002078DFF83C93C007A9F104054AD009F1A2
:1012900004000168C1F38101012908D00068C0F38E
:1012A000810002280AD1D9F80000400206D528683A
:1012B000800337D560680028E1D033E06068B0F57E
:1012C000803F10D0B0F5A02F286810D020F48030D7
:1012D0002860286820F4802028606068A8B1FFF7A3
:1012E0007BFC06460DE0286840F48030F4E740F4CB
:1012F00080202860F7E700BFFFF76EFC801B6428A2
:1013000073D828688003F7D50CE0FFF765FC064624
:1013100005E000BFFFF760FC801B6428F0D8286858
:101320008003F7D42078DFF89C8280074FF0000A12
:101330003ED5A348001D016811F00C0F08D00068CD
:10134000C0F3810002280BD1D9F80000400207D475
:101350002868800716D5E068012800D112E02BE14B
:10136000E068B8B10120C8F80000FFF735FC064678
:1013700005E000BFFFF730FC801B0228C0D82868BA
:101380008007F7D52868216920F0F80040EAC100FD
:1013900028600DE0C8F800A0FFF71EFC064604E038
:1013A000FFF71AFC801B02281FD828688007F7D493
:1013B0002078000722D5824E83486169703671B16A
:1013C00001210160FFF708FC074604E0FFF704FC79
:1013D000C01B022809D830688007F7D50EE0C0F896
:1013E00000A0FFF7F9FB074605E082E0FFF7F4FBFA
:1013F000C01B02287DD830688007F7D420784007CA
:1014000068D5DFF8BCB100270BF13C0BDBF800001E
:10141000C0000BD4DBF8001041F08051CBF8001075
:10142000DBF80000012700F080500090674E306824
:10143000C00510D4306840F480703060FFF7CCFBFA
:10144000009005E0FFF7C8FB0099401A022850D829
:101450003068C005F6D55A4EA0686C3601280FD00A
:101460000528306810D020F001003060306820F08E
:1014700004003060A068B8B1FFF7AEFB00900FE049
:10148000306840F00100F4E740F004003060F7E716
:10149000FFF7A2FB0099411A41F28830814266D8D9
:1014A00030688007F4D50EE0FFF796FB009007E068
:1014B000FFF792FB0099411A41F28830814256D8D9
:1014C00030688007F4D42FB1DBF8001021F0805190
:1014D000CBF80010A069C8B33949091D0968C1F3E8
:1014E000810102294AD00228504607D0C8F860007E
:1014F00000E03CE0FFF770FB04463BE04746C8F8DD
:101500006000FFF769FB064605E000BFFFF764FBDC
:10151000801B02282BD828688001F7D4D4E9070162
:101520000843A16A2A4A490802EB0141626A41EA7A
:101530008211084394F82C1040EA0161C9F80010A8
:1015400001203866FFF748FB044606E036E000BF9E
:10155000FFF742FB001B022809D828688001F7D555
:101560002CE000BFFFF738FB001B022802D9032044
:10157000BDE8F88F28688001F4D41FE00128F7D077
:10158000D9F80000E26900F48001914214D1226A86
:1015900000F03F0191420FD147F6C071626A0140ED
:1015A000914209D1A26A00F44031914204D1E16A2A
:1015B00000F07060884201D00120D9E70020D7E711
:1015C0000438024000004742800E4742007000404D
:1015D0000000FFFF10B5401EB0F1807F01D3012055
:1015E00010BD4FF0E02460610F21601700F04AFD4C
:1015F0000020A06107202061002010BD704700007E
:1016000070B5026804461068D168536910F00F0F76
:1016100053D003F0010501F490762E435FD0C2074A
:1016200005D0CA0503D5E26B42F00102E26342072E
:1016300005D5DA0703D0E26B42F00202E2638207CB
:1016400005D5DA0703D0E26B42F00402E263020739
:1016500007D501F020022A4303D0E26B42F00802D2
:10166000E263E26B002A34D0800604D5880602D5F6
:10167000204600F0AFFB20684069E16BC0F38010AA
:1016800001F008010143204624D000F095FB2068BA
:10169000416949061AD5416921F040014161606BF9
:1016A000A0B11B490165606BFFF762F9002810D0FB
:1016B000606B016DBDE87040084783060FD58B064F
:1016C0000DD52046BDE8704000F084BB2046FFF7F2
:1016D00095FF70BDFFF792FF0020E06370BD030629
:1016E00006D50B0604D52046BDE8704000F052BC7C
:1016F0004006F3D54806F1D5D168204621F04001D7
:10170000D160202184F8391000F0D2F870BD0000BB
:10171000A91D000870B5040004D094F83900002514
:1017200010B106E0012070BD84F83850204600F06A
:1017300023F8242084F839002068C16821F400517E
:10174000C160204600F092FB2068016921F49041BD
:1017500001612068416921F02A0141612068C16866
:1017600041F40051C160E563202084F8390084F819
:101770003A00002070BD000010B586B00446142168
:101780006846FEF755FD18492068884229D1174858
:10179000016841F400210160006800F40020059018
:1017A00012481038016841F0040101600068694680
:1017B00000F0040005904FF440600090022001907A
:1017C0000120029003200390082004900848FFF7AE
:1017D00015F9002211463420FFF732FC3420FFF7C0
:1017E00021FC06B010BD0000004C00404038024013
:1017F0000008024070472DE9F843044690F839008C
:101800001F4616460D46202850D1B5B1AEB194F80A
:10181000380001284AD0012084F838004FF0000831
:10182000C4F83C80212084F83900FFF7D5F9A6845C
:101830008146E68484F8388026E00120BDE8F883FC
:10184000E08C401EE084A0684B46B0F5805F4FF00E
:1018500000024FF080012046009703D000F0CBFB40
:10186000E8B90DE000F0C7FBC8B928882168C0F3CB
:1018700008004860206908B16D1C05E0AD1C03E05C
:10188000216815F8010B4860E08C0028D8D14B4640
:10189000002240212046009700F0ADFB08B1032054
:1018A000CCE7202084F839000020C7E70220C5E7F4
:1018B0007047FEE701684A69D24352050FD46FF4BE
:1018C00080624A61002140F8301F202242738173F8
:1018D000026942F004020261017301207047002096
:1018E00070470000F8B50446C06A1E460D4617460C
:1018F000082807D0012805D010F5803F02D0206BC2
:10190000122804D12068016841F4807101601346F7
:1019100000224FF001112046009600F057F840B128
:1019200020680068C00502D54FF4007020640320D1
:10193000F8BD2069B0F5804F0ED00620216800EA7E
:10194000D51040F0F000086133463A460B49204676
:1019500000F070F878B902E005F0FE0000E0E8B2AF
:1019600021680861054933463A46891F204600F040
:1019700061F80028DCD00120F8BD0000080001005B
:1019800070B516460D4604460DE02046FFF792FF5F
:1019900008B1012070BD681C05D0FFF71DF9801B40
:1019A000A84207D835B120684069C0434007ECD44D
:1019B000002070BD002044F8300F20216173A07317
:1019C000216941F0200121612073E2E72DE9F04710
:1019D0001E4690460D460446C1F30747DDF82090A9
:1019E00008E0701C06D0FFF7F7F8A0EB0900B04242
:1019F0000FD876B12068012F18D0806925EA000041
:101A00000004000C14D000214145EAD00020BDE8BC
:101A1000F087002044F8300F20216173A073216902
:101A200041F02001216120730120F0E74069E5E7E2
:101A30000121E9E72DE9F0479A4691460E46044612
:101A400000254FF02008C1F3074725E020684069D2
:101A5000C043400514D42068016841F4007101605E
:101A600021686FF480604861256384F83D8084F8C4
:101A70003E50206C40F00400206484F83C501FE08D
:101A8000B9F1FF3F08D0FFF7A7F8A0EB0A014945DD
:101A90000CD8B9F1000F09D02068012F13D080694C
:101AA00026EA00000004000C0BD0CFE744F8305FBA
:101AB00084F80D80A573206940F020002061257313
:101AC0000120BDE8F0874069EAE770B516460D468B
:101AD00004460DE02046FFF7EDFE08B1012070BD81
:101AE000681C05D0FFF778F8801BA84207D835B1ED
:101AF00020684069C0430006ECD4002070BD00207F
:101B000044F8300F20216173A073216941F0200156
:101B100021612073E2E700007FB5002412480094A1
:101B2000019402940F49039401604FF48031C0E99D
:101B3000011401250461057680F820400B49C0E9B5
:101B40000A14C561C46080F830404561FEF7C7FDE6
:101B500006200094CDE9015069460348FEF776FC63
:101B60007FBD000000200140680000200100000F40
:101B70002DE9F04F87B014216846FEF759FB47481E
:101B80000024016841F080010160016801F08001DA
:101B90000591016841F001010160016801F0010156
:101BA0000591016841F002010160016801F0020144
:101BB0000591016841F010010160016801F0100118
:101BC0000591016841F008010160016801F0080118
:101BD0000591016841F0040101600068DFF8C0B0C0
:101BE00000F004004FF4A04605900122314658460B
:101BF000FEF7ECFFDFF8AC90B710012239464846FB
:101C0000FEF7E4FFDFF8A0A04FF460480022414651
:101C10005046FEF7DBFF0220CDE900046946234869
:101C20000294FEF7EBFE052001258DE831006946A0
:101C30004846FEF7E3FE30118DE83100694658460C
:101C4000FEF7DCFE0096CDE9015469465846039440
:101C5000FEF7D4FE0097CDE9015469464846039447
:101C6000FEF7CCFECDF80080CDE901546946504620
:101C70000394FEF7C3FE0E480095CDE901046946C2
:101C80005846FEF7BBFE002201210620FFF7D8F9D7
:101C90000620FFF7C7F907B0BDE8F08F30380240E3
:101CA0000010024000040240000C0240000002400C
:101CB00000001110FEE7704770477047044802218A
:101CC000016000214160816001460248FEF796BE36
:101CD0009801002000000240054802210160012116
:101CE00041600021C16001460248FEF787BE000046
:101CF0009801002000000240FFF73AB930B593B0D8
:101D000030216846FEF794FA14210CA8FEF790FAE9
:101D100019480025016841F080510160006800F019
:101D2000805011901548016841F4804101600068BD
:101D3000022400F4804011900120039010200490B0
:101D4000009406940820CDE90750A820CDE90904A5
:101D500004200B906846FFF78FFA0CA90F2081E84A
:101D600031004FF4A0500F90E002109005210CA814
:101D7000FFF798F913B030BD4038024000700040C2
:101D80000548016841F47001016003494FF00060AB
:101D9000803908607047000088ED00E00148FFF7D7
:101DA0002FBC00005801002010B5806B0021C185B8
:101DB000C184FFF723FC10BD0168CA6822F4907249
:101DC000CA6001684A6922F001024A61202180F854
:101DD0003A10704710B590F83A10222901D002202D
:101DE00010BD8168B1F5805F11D0016900290168DB
:101DF0001FD0496801F07F03816A4A1C82620B7020
:101E0000C18D491E0904090CC18518D02BE0026957
:101E1000816A002A0268526805D0D2B20A80816ABB
:101E2000491C8162ECE7C2F308020A80816A891CBE
:101E3000F7E74A68816A4B1C83620A70E0E7016831
:101E4000CA6822F02002CA600168CA6822F480725F
:101E5000CA6001684A6922F001024A61202180F8C3
:101E60003A10FFF7C7FC002010BD00002DE9F0413B
:101E7000044600680169E26821F4405111430161A0
:101E80002169A068E2690843616911430843216838
:101E9000CA6849F20C639A430243CA6020684169E8
:101EA000A26921F4407111434161E0691927642559
:101EB0003226B0F5004F354A354920684FF000080A
:101EC00006D0884201D0904236D1FFF795F935E02F
:101ED000884201D0904202D1FFF78EF901E0FFF76E
:101EE0007BF961684A18A0FB070148EB0803FEF77D
:101EF00067F90146B0FBF5F00201B1FBF5F06FF0B8
:101F00001803584301EB800006EBC000B0FBF5F06E
:101F100000F0F80002EB4002B1FBF5F0584301EB92
:101F2000800006EBC000B0FBF5F000F00700216870
:101F300010448860BDE8F081FFF74EF961688B0FAF
:101F40008A00A0FB0701FEF73BF90146B0FBF5F064
:101F50006FF01802504301EB800006EB0010B0FB5D
:101F6000F5F000F0F002B1FBF5F002EB0012B1FB6E
:101F7000F5F06FF01803584301EB800006EB0010FA
:101F8000B0FBF5F000F00F00D1E7000000140140B5
:101F90000010014090F83910212901D0022070472B
:101FA0008168B1F5805F016A0BD04A1C0262026849
:101FB00009785160C18C491E0904090CC1840ED0F6
:101FC00017E009880268C1F308015160016900291E
:101FD000016A02D0491C0162ECE7891CFBE7016839
:101FE000CA6822F08002CA600068C16841F04001FE
:101FF000C160002070472DE9F041984617460E4613
:102000000446069D1DE0681C1BD02DB1FEF7E4FDC3
:10201000A0EB0800A84214D92068C16821F4D0714F
:10202000C1602068416921F001014161202084F8EC
:10203000390084F83A00002084F838000320BDE815
:10204000F0812068006836EA000004D00020B84221
:10205000D9D00020F3E70120F9E7FEE70FB4084BE1
:1020600010B504A902AA039800F02CF8044602A9AE
:10207000002000F0D1F8204610BC5DF814FB0000F1
:10208000192200080907090E002804DB00F1E020EE
:1020900080F80014704700F00F0000F1E02080F895
:1020A000141D704702E008C8121F08C1002AFAD1A7
:1020B00070477047002001E001C1121F002AFBD1C8
:1020C000704700002DE9FF4F89B09B46044600256C
:1020D00006E025280BD05A460B999047641C6D1CCE
:1020E00020780028F5D10DB02846BDE8F08F0027F4
:1020F000B8460122474900E0074314F8013F203B5E
:1021000002FA03F00842F7D120782E2819D114F8EA
:10211000010F47F004072A280ED06FF02F02207815
:10212000A0F1300109290CD808EB880102EB41012C
:1021300000EB0108641CF2E70A98641C50F8048B59
:102140000A9020780028CED0642808D0692806D0CC
:1021500075281ED05A460B9990476D1C58E00A9975
:102160004FF00A0901C90A91002802DA40422D21E4
:1021700002E0390504D52B218DF82010012103E060
:10218000F90704D02021F7E78A4608AE0DE00021C8
:10219000FAE70A994FF00A0901C90A91F7E7494697
:1021A000FEF758F8303106F8011D0028F7D1ADEBE5
:1021B000060000F12009780701D44FF00108C84556
:1021C00002DDA8EB090000E000208046002706E0C1
:1021D00008A85A46C05D0B9990476D1C7F1C574557
:1021E000F6DB04E030205A460B9990476D1CB8F19D
:1021F0000001A8F10108F5DC05E016F8010B5A46CC
:102200000B9990476D1CB9F10001A9F10109F4DCAB
:10221000641C65E7092801000A68531C0B601070F4
:102220007047000070B50E4C00202070282000F090
:102230002EF80C4D02212846FEF7BCFC48B9502070
:1022400000F025F802212846FEF7B4FC012800D151
:10225000207002212846FEF7ADFC0128F9D070BDA0
:1022600000000020000002400CB5002345F6C051DC
:102270001A46009308E00193019A521C01928A4287
:10228000FAD3009A521C00928242F4D30CBD0CB5D2
:1022900000EB4000C00001900020019900908842AE
:1022A00001D2401CF9E70CBD094910B50020887027
:1022B0000A210848FDF7BCFF00F00EF8044A002090
:1022C000044924320B5C1354401C0A28FADB10BD6D
:1022D0000000002040000020F0B5404C85B00025F3
:1022E000E57000F0B7F82079032874D83C49002045
:1022F00004F124020B5C165CB34203D0E078401C6E
:10230000E07002E0401C0A28F4DBE078354F4FF41F
:10231000804600282FD02079401C207100210846DB
:1023200000F060F930A000F045F9207932A1C0F149
:1023300004026846FFF792FE0121002000F052F9E6
:10234000684600F037F9002231463846FEF73EFC79
:10235000A5700A212248FDF76BFFC820FEF71AFB83
:1023600000F081F80021084600F03CF927A000F0B9
:1023700021F964202BE0257100F075F80021084652
:1023800000F030F926A000F015F9A5700A211448D4
:10239000FDF74EFFC820FFF767FF00F064F800214B
:1023A000084600F01FF922A000F004F96420FFF7AE
:1023B0005BFF012231463846FEF708FC0121084642
:1023C00000F010F91EA000F0F5F84FF49660FFF74A
:1023D0004BFF00F03FF805B0F0BD0000000000200A
:1023E00040000020000C0240536169206D617420A0
:1023F0006B6861750000000042616E20636F6E20A3
:10240000256420636F20686F690000004E6861706A
:10241000206C6169206D6174206B6861750000003B
:1024200044756E67206D6174206B686175000000F3
:102430004F50454E2054484520444F4F5200000015
:10244000202020202057454C434F4D452020202060
:102450002000000010B5012000F00EF8BDE810408B
:102460000520FFF701BF10B5012000F02DF8BDE8F1
:1024700010400520FFF7F8BE1CB500F0F00141F058
:102480000C028DF8042041F008018DF805100C2194
:1024900041EA00118DF80610082141EA00108DF87C
:1024A00007000A24042301AA4E2106480094FEF7DF
:1024B0005DFC0448042301AA4E2154300094FEF729
:1024C00055FC1CBDB00000201CB500F0F00141F02F
:1024D0000C028DF8042041F008018DF805100C2144
:1024E00041EA00118DF80610082141EA00108DF82C
:1024F00007000A200090042301AA4E210148FEF79C
:1025000035FC1CBD040100201CB500F0F00141F0B9
:102510000D028DF8042041F009018DF805100D2100
:1025200041EA00118DF80610092141EA00108DF8EA
:1025300007000A200090042301AA4E210348FEF759
:1025400015FC0220FFF790FE1CBD0000B00000202B
:102550001CB500F0F00141F00D028DF8042041F0AF
:1025600009018DF805100D2141EA00118DF80610C2
:10257000092141EA00108DF807000A200090042389
:1025800001AA4E210348FEF7F1FB0220FFF76CFE83
:102590001CBD00000401002070B50546002403E0C6
:1025A000285DFFF7B1FF641C2846FDF74CFEA042F2
:1025B000F6D870BD70B50546002403E0285DFFF72E
:1025C000C7FF641C2846FDF73EFEA042F6D870BD4A
:1025D00028B1012805D1C031C8B2FFF74DBF803105
:1025E000FAE7704728B1012805D1C031C8B2FFF71A
:1025F0006BBF8031FAE7704710B53320FFF73CFF1F
:102600003220FFF739FF2820FFF736FF0C20FFF7B5
:1026100033FF0620FFF730FF0120FFF72DFF3320A7
:10262000FFF752FF3220FFF74FFF2820FFF74CFF44
:102630000C20FFF749FF0620FFF746FF0120FFF7B8
:1026400043FFBDE810400F20FFF70EBEB0B0FEF70D
:1026500097FCFFF753FBFFF78BFAFFF75DFA614832
:102660005F49614D00240160C0E901540E14C0E9C6
:10267000034644618461C4610462FEF7B3FA5948B9
:102680005A49A83001604FF4E131C0E901140C212E
:10269000C460C0E904418461C461FFF73BF851485C
:1026A000534954300160C0E90154C0E90346446114
:1026B0008461C4610462FEF795FA4E4D76100022E3
:1026C00031462846FEF782FAFFF796FF00210846BA
:1026D000FFF77EFF48A0FFF75FFFFFF7BBFE494C07
:1026E000B700002231462846FEF770FA00F0C8F81D
:1026F0002069012853D1FDF791FEFFF793FD00F00B
:1027000095F8607100F092F8A07100F08FF8E07118
:1027100000F08CF82072E1796161E0616079A0617C
:10272000A079206200F082F8A08100210846FFF71E
:102730004FFF35A16846E3696269FFF78FFC684681
:10274000FFF72AFF33A126A8E3696269FFF786FC39
:1027500024483223112226A9A830FFF74CF8C820BC
:10276000FFF782FD00210120FFF732FF2BA119A8FE
:10277000236AA269FFF772FC19A8FFF70DFF25A1D4
:102780002BA8236AA269FFF769FC1648322311229D
:102790002BA9A830FFF72FF8C820FFF765FD2069A7
:1027A000401C2061052801D1012020610D484838D6
:1027B000FEF74AF80B481E214838FDF7F3FF094899
:1027C0004838FDF7EBFE608106484838FEF7B2F85E
:1027D00039462846FEF7F3F93220FFF745FD80E73A
:1027E00000540040B0000020A0860100004C0040D2
:1027F000005C0040000C024048454C4C4F20574FB5
:10280000524C44000000002054656D703A2025644D
:102810002E25640025642E256400000068756D690E
:10282000646974793A2025642E2564002DE9F0410D
:102830000025124E2C46012702213046FEF7BAF938
:102840000028F9D02820FFF722FD02213046FEF7AC
:10285000B1F9012805D1C4F1070107FA01F02843B5
:10286000C5B202213046FEF7A5F90028F9D1641C53
:10287000E4B2082CE0D32846BDE8F0810000024015
:102880002DE9F05FE74D00224FF480512846FEF716
:102890009DF9E54C01212046FEF78CF9E34FE44E0B
:1028A000D8B90A20FEF776F801212046FEF782F912
:1028B0000028F9D0B0780122DEA13A54DB480A3072
:1028C000FFF7CCFBB1780020FFF782FED7480A3033
:1028D000FFF770FEB078401CB0700421A04620467F
:1028E000FEF768F9E0B90A20FEF754F844460421DF
:1028F0002046FEF75FF90028F9D0B0780422CDA178
:102900003A54CA480A30FFF7A9FBB1780020FFF714
:102910005FFEC6480A30FFF74DFEB078401CB0702D
:102920004FF4807B59462846FEF744F9E0B90A2067
:10293000FEF730F85C4621462846FEF73BF90028B2
:10294000F9D0B0780722BBA13A54B8480A30FFF753
:1029500085FBB1780020FFF73BFEB4480A30FFF753
:1029600029FEB078401CB0704FF4806421462846A0
:10297000FEF720F94FF0000AC8B90A20FEF70AF85E
:1029800021462846FEF716F90028F9D0B07870B134
:10299000401EC1B2B17007F801A00020FFF722FE6F
:1029A000A5A0FFF707FEB1780020FFF71BFE01226C
:1029B000A94611034846FEF709F900224FF4804169
:1029C0002846FEF703F9012145464046FEF7F2F896
:1029D000D8B90A20FDF7DEFF01212846FEF7EAF804
:1029E0000028F9D0B078022292A13A548F480A30D8
:1029F000FFF734FBB1780020FFF7EAFD8B480A307F
:102A0000FFF7D8FDB078401CB0700421A8462846D6
:102A1000FEF7D0F8E0B90A20FDF7BCFF45460421D7
:102A20002846FEF7C7F80028F9D0B078052281A122
:102A30003A547E480A30FFF711FBB1780020FFF7C7
:102A4000C7FD7A480A30FFF7B5FDB078401CB0707A
:102A50005D4659464846FEF7ADF8D8B90A20FDF75D
:102A600099FF29464846FEF7A5F80028F9D0B07826
:102A7000082270A13A546D480A30FFF7EFFAB17896
:102A80000020FFF7A5FD69480A30FFF793FDB078F5
:102A9000401CB070A34621464C464846FEF78AF8D3
:102AA000E0B90A20FDF776FF29462046FEF782F8B6
:102AB0000028F9D0B07852465EA107F800A05B4824
:102AC0000A30FFF7CBFAB1780020FFF781FD5748B5
:102AD0000A30FFF76FFDB078401CB07001229103FF
:102AE000A2462046FEF772F80022D94659464446CF
:102AF0004046FEF76BF801212046FEF75BF8D8B997
:102B00000A20FDF747FF01212046FEF753F8002871
:102B1000F9D0B078032247A13A5444480A30FFF76D
:102B20009DFAB1780020FFF753FD40480A30FFF7C7
:102B300041FDB078401CB07004212046FEF73AF801
:102B4000D8B90A20FDF726FF04212046FEF732F807
:102B50000028F9D0B078062236A13A5433480A301A
:102B6000FFF77CFAB1780020FFF732FD2F480A30DA
:102B7000FFF720FDB078401CB0702946D046504683
:102B8000FEF718F8D8B90A20FDF704FF2946404699
:102B9000FEF710F80028F9D0B078092225A13A54A0
:102BA00022480A30FFF75AFAB1780020FFF710FDEB
:102BB0001E480A30FFF7FEFCB078401CB0704E464D
:102BC000494647464046FDF7F5FF50B90A20FDF754
:102BD000E1FE29463846FDF7EDFF0028F9D0FFF762
:102BE0007BFB012231462046FDF7F0FF00224FF427
:102BF00080513846FDF7EAFF31462046FDF7DAFFFF
:102C000000280CD10A20FDF7C5FE31462046FDF70D
:102C1000D1FF0028F9D0BDE8F05FFFF745BBBDE864
:102C2000F09F00000010024000040240400000201D
:102C300000000020256400002000000000000000CB
:102C4000000000000102030406070809000000005C
:102C500001020304742C0008000000204000000062
:102C6000A4200008B42C00084000002070050000DB
:102C7000B420000800000000000000000000000078
:102C80000000000001000000000000000000000043
:102C90000000000000000000010205040000000028
:102CA0000000000001000000100000000000000013
:042CB0000024F40008
:040000050800018965
:00000001FF
